:020000041000EA
:10000000002008205D0100101B0100101D010010E0
:100010001101001011010010110100101101001058
:100020001901001019010010190100101F01001022
:10003000110100101901001021010010230100100E
:100040001101001011010010110100101101001028
:100050001101001011010010110100101101001018
:100060001101001011010010110100101101001008
:1000700011010010110100101101001011010010F8
:1000800011010010110100101101001011010010E8
:1000900011010010110100101101001011010010D8
:1000A00011010010110100101101001011010010C8
:1000B00011010010110100101101001011010010B8
:1000C00011010010110100101101001011010010A8
:1000D0001101001011010010110100101101001098
:1000E0001101001011010010110100101101001088
:1000F0001101001011010010110100101101001078
:100100001101001011010010110100101101001067
:10011000EFF30580103800BE00BE00BE00BE00BE7A
:1001200000BE00BEF2EB88719C540010BC5400105D
:10013000A001001090A31AE7D3DEFFFF42012110B7
:10014000FF0100004C630000793512AB4FF0000056
:100150001E49086006C881F3088810474FF05040D8
:10016000006810B14FF00000F2E70DA40ECC00299A
:1001700002D000F012F8F9E71549164A002000E015
:1001800001C19142FCD11449884714498847144958
:10019000884700BEFDE701C901C29A42FBD3704700
:1001A000BC54001010010020D810002084640010FE
:1001B00000000820000008208464001000100820BF
:1001C00000100820000000007047000008ED00E06B
:1001D000D8100020F0250020792E00100902001010
:1001E000712E0010F8B500BF08B5034B1BB10349D1
:1001F0000348AFF3008008BD000000000422002087
:100200000452001000F0D0BD70B590B000F00EFCAC
:100210000021084604F00EFA11491D2000F088FB69
:100220006E4601F03BF94FF0FF30002103F0BCF9BE
:10023000002003F081FF68B140223146002003F026
:1002400091FF38B13446351814F8010B00F02EFE3A
:10025000AC42F9D100F0CCF900F0DAFAE3E700BFE4
:1002600005020010034B4FF000021B6842EC4430C3
:10027000704700BFBC230020F8B5154B1B7803B1B5
:10028000F8BD064602F0BAFA4FF0504C04460D464F
:10029000104B114FDCF804C0C3E900450F4A3B681E
:1002A0001268013303F03F039342E9D0012202FABE
:1002B00006F000EA0C00003818BF01203A683B60E5
:1002C000074B03EB0213C3E900459860F8BD00BF7C
:1002D000E7250020601200201C240020202400209C
:1002E000681200202DE9F041B7490B78013B092B3A
:1002F00014D8DFE813F01500330059007A0091009C
:10030000B200C700DD00F2000A00B04B4FF000025F
:100310001B6842EC44300122AD4B1A70BDE8F081FD
:10032000AA4B4FF000021B6842EC443002230B70D2
:1003300002F064FA4FF0FF3C6FF0004410F5487291
:1003400041F10003944574EB030138BF2346BDE837
:10035000F04138BF6246002002F0B8BA03230722FA
:1003600000269C4C9C4825780B709C4B15411A60CC
:10037000066002F043FA9A4B944A4FF0010C12685F
:100380000446C3E900014CEC442040F2DC52B54283
:1003900018BF4FF4167212194FF00000BDE8F0417B
:1003A00041F1000302F092BA884B4FF000021B6843
:1003B00042EC4430884B87481B68884AC05C12680E
:1003C000874B104110F00100D3E9002300F0C280F8
:1003D00040F21A44042512190D704FF00000BDE8D8
:1003E000F04143F1000302F071BA4FF05042012096
:1003F000764B52681B6800FA03F3134040F0E2802A
:1004000011250A22774C2370774C2370774C704B60
:1004100025700A70187081E7704A6F481368046885
:10042000013B002B1360C0F2AD800320694A0870C5
:10043000125D4FF0010642FA03F303F0010502F0EA
:10044000DDF9674B614A0446C3E90001126846ECD6
:10045000442040F2DC52002D9AE75C4B4FF0000242
:100460001B6842EC443007245D4B0C70D3E9002339
:1004700012F516624FF00000BDE8F04143F10003B1
:1004800002F024BA08230B7002F0B8F9544B4F4A1B
:100490004FF00104C3E90001126844EC442010F558
:1004A000167241F100030020BDE8F04102F00EBADF
:1004B000464B4FF000021B6842EC443040F21A40B9
:1004C0000924474B0C70D3E90023121843F10003B1
:1004D0000020BDE8F04102F0F9B94FF0504C3D4B1F
:1004E0003D4C93F810E0987C3D4B2568D3E9002300
:1004F00012F51662DCF804600EF1FF3E43F10003D2
:10050000D0B14FF0010C314800680CFA00FC1CEA35
:10051000060F11D0AE4511D100200A244FF0120C65
:10052000304D314F314E2870387086F800C00C7055
:10053000BDE8F04102F0CAB9AE4515D001352560DD
:100540000524082525480C7005600020BDE8F04111
:1005500002F0BCB9052412F516620C7043F10003D9
:10056000BDE8F04102F0B2B90A2400204FF0010CBE
:100570001C4D1D4E287086F800C00C70BDE8F0417F
:1005800002F0A4B90623134A0B70157C02F036F969
:10059000134B0E4A4FF0010C1668C3E900010246E6
:1005A000013D4CEC446040F2DC53A54208BF4FF4DF
:1005B0001673BDE8F041D2184FF0000041F100037E
:1005C00002F084B905244FE7EA250020BC2300206F
:1005D000EB250020642300202C2500202825002066
:1005E00068160020E7250020EC250020E8250020E3
:1005F000784A2DE9F84F1378002B00F0AD80764F44
:10060000764E3B68326893424FD0DFF8F8814FF066
:10061000000A98F80010724D724CDFF8EC910DE072
:100620000129C4E900C34CD003294ED0002948D188
:10063000012188F800103B68934236D005EB021385
:10064000986802F1010E4FEA021C0EF03F0255F8C5
:100650000CC05B6832600028E2D02068BCEB000C64
:10066000606863EB0003012921D00229E3D140F245
:100670001A4B5D48DC45016873F1000E34BF4FF042
:10068000010E4FF0000E072927DCDFF880B10131A1
:100690009BF800304EEA43038BF8003001600321E1
:1006A0003B6888F800109342C8D1BDE8F88F40F24B
:1006B00021311CEB090C63F100038C4573F100033D
:1006C00011D3002188F800A0B5E747490968092936
:1006D00021D0022188F80010ADE7082916D0092999
:1006E0004ED00131DAE700200321404BDFF81CB186
:1006F000C3E90000C3E9020018823B4B8BF80000FD
:1007000018603B4B88F80010187094E7384B0921AB
:1007100083F800E0C2E73549087C30B3087800F080
:100720000F0034490988C14011F0010F324923D02C
:1007300000220A70314A4FF00101126841EC442056
:1007400040F2DC521CEB02024FF0010043F10003C7
:1007500002F0BCF83268BCE7012024491070C1E9FE
:100760000033C1E902330B8249E7DFF8A0B09BF800
:10077000000000F00F00D4E708780028A9D0D7E7E0
:10078000DC4573F100032CBF01210021174BDFF87A
:100790007CB05974197C0F299FBF01F1010C83F8BB
:1007A00010C09BF800C003F801C000238BF8003094
:1007B0004FF0FF3303600E4B197800293FF46EAF02
:1007C0000F4B1B6813B1094898473268002188F81D
:1007D000001030E7E22500201C2400202024002007
:1007E00068120020581200209C1C0020E41D0020EC
:1007F000E1250020DA250020E5250020BC2300208B
:1008000024240020ED2500201CF3FFFFE02500201C
:10081000394B2DE9F0471A784AB10021374A19704F
:10082000526922B13649374B087819789047364CCF
:10083000237823B1354D2B7803F0FF060BB1BDE8CB
:10084000F08701F0DBFF4FF41662314F314B97F820
:1008500011C0D3E9008902FB0CFCB0EB080261EB8C
:100860000903624573F1000313D22B4B2B4D1A6819
:100870005B68801A61EB0301854276EB0101DED2F1
:100880007B692670002BDAD03046BDE8F047142192
:10089000184726700124BC464FF0070E1848194A25
:1008A0001F4B20492C700E6006701F491670134FA5
:1008B0001C701E4BC1F800E01D68BCE80F000FC79C
:1008C0009CE8030087E8030044EC445001F096FFE5
:1008D00040F674634FF0FF356FF00044C21841F1E9
:1008E0000003954274EB03013CBF2A462346BDE852
:1008F000F047002001F0EABFEB2500206423002030
:10090000EC250020E8250020E9250020E72500202F
:100910000424002060120020701600201FA1070090
:10092000EA2500202C25002028250020BC230020BB
:1009300038B5194A194B04461160186001F05EFF82
:10094000174D4219174861F10003C0E90023204602
:1009500000F062FF00220121204600F0F5FE4FF07A
:10096000000343EC404043EC4440002001F034FFDE
:100970000D49002001F05EFF012001F02DFF012054
:100980000A4901F057FF204601220C21084B00F0D4
:10099000EFFE002038BD00BF24240020BC2300202F
:1009A000A0ABFFFF60120020E502001065020010FE
:1009B0007902001094460A460146501E0F2824D89A
:1009C000F8B5134D2878E8B91248007800F0FF0414
:1009D000C0B9BCF1000F08BF4FF0070C0E4883747C
:1009E000069B0274436180F811C004F0CBFA01F059
:1009F00005FF012206460F46084B2046C3E9006763
:100A00002A70F8BD4FF0FF30F8BD6FF0010070475D
:100A1000E9250020E725002004240020701600208E
:100A2000014B1880704700BFDA2500201749F8B540
:100A3000174D0B68AB4208D14FF48072154804F093
:100A4000A1FA0022144B1A70F8BDF822FF211348B6
:100A500004F02EF90E2205204FF080530F4F104E58
:100A6000A7F108040F492072A018C7F8023047E91F
:100A7000025604F06BF9E422FF2107F1140004F0A0
:100A800017F90022044B1A70F8BD00BF00F03F10A8
:100A90005235385028240020E4250020302400203E
:100AA00001000F040452001038B50C4614490546E5
:100AB00004F08AF9C0B12846124904F085F980B1E2
:100AC0002846114904F080F9A0B128460F4904F0E6
:100AD0007BF960B128460E4904F076F968B12046EA
:100AE00038BD0C4B587938BD0A4B187938BD094BC5
:100AF000D87938BD074B987938BD064B187A38BD80
:100B00001052001018520010245200102C520010E5
:100B1000385200102824002038B50C4608490546F4
:100B200004F052F948B12846064904F04DF908B1DD
:100B3000204638BD044B988938BD034B588938BDD1
:100B4000445200104C5200102824002038B50C46A6
:100B50000649154604F038F908B1002038BD2A4688
:100B60002046034904F0F2F8012038BD5852001025
:100B70003624002038B50D461549044604F024F902
:100B800028B9144B1D710122134B1A7038BD204631
:100B9000124904F019F910B90E4B5D71F3E72046C4
:100BA0000F4904F011F938B120460E4904F00CF950
:100BB00028B9084BDD71E6E7064B9D71E3E7204657
:100BC000094904F001F90028E0D1024B1D72DAE76F
:100BD0001052001028240020E42500201852001094
:100BE000245200102C5200103852001038B50C4618
:100BF0000949054604F0E8F828B9084B5C81012250
:100C0000074B1A7038BD2846064904F0DDF8002865
:100C1000F8D1024B9C81F2E74452001028240020B6
:100C2000E42500204C52001010B50C46064904F093
:100C3000CBF800B110BD0E222146044804F086F81E
:100C40000122034B1A7010BD5852001036240020A8
:100C5000E425002038B50E4C237803B938BD4FF495
:100C600080720C490C4804F08DF9EFF3108572B6D0
:100C70004FF48051094804F08BFA4FF48072064912
:100C8000064804F071FA85F310880023237038BDFC
:100C9000E4250020282400201C22002000F03F0032
:100CA00000487047FC53001000487047B0530010D4
:100CB00020B3042824D8134B013810B553F8204032
:100CC000204604F0D5F9C0B21F28844628BF4FF053
:100CD0001F0C0CF10103DBB20B4A5B0043F44073C1
:100CE000138048B10023601E013310F8011FDBB2EE
:100CF0009C4522F8021FF7D8034810BD03487047EF
:100D0000002070479C5300107C230020AC5300103F
:100D100010B5D0B900290B4614BF0B46112303228E
:100D20004FF0FF0E4FF0FE0C09490A4C00204B70AB
:100D3000226081F800E081F802C003F0A5FA0020EB
:100D400003F05AFA0023236010BD1023E7E700BF29
:100D500030250020B025002040F6FF02104BFC2873
:100D600010B51A8017D90522C11ED9704FF0040C96
:100D7000FD2011464FF0FE0E0A4C987021600020B5
:100D8000074903F80CE003F07FFA002003F034FA7F
:100D90000023236010BD04224FF0030C1146E9E745
:100DA00030250020B0250020027C002A70D02DE9DB
:100DB000F84F017890F811E001F00F010F2908BFFA
:100DC0008EF0010E0023374C4FEA8E1E4FF0850C3B
:100DD0004FF005084FF0FF0B4FF0FE0A19469946F9
:100DE000314D471E23605FFA8EFE561E1EE0802E98
:100DF00035D06FF0020C033A7D2B05F806C0D2B255
:100E000003F103062BD0AA550433802B41D005F8FB
:100E100003A0027C01318A4203F1010329DD4FF076
:100E200001094FF0860C4FF00608561E8E4218BF7F
:100E3000C446802B16D07F2B05F803B003F10102C6
:100E40000DD04CEA0E0C05F802C017F8012F9E1CBD
:100E5000FC2ACCD8802E02D0AA550333D5E74FF018
:100E60000109027C01319142FCDB8023B9F1000FC2
:100E70000CD01A4623600C49002003F005FA00202C
:100E800003F0BAF900232360BDE8F88F4A46F2E781
:100E90007047027C01319142B8BF4FF00109E1DB9C
:100EA000E7E700BFB025002030250020F0B5FF287F
:100EB00083B015D0FE281AD0944B1A785AB9FD2861
:100EC00051D0934A13683F2B03DC92495C1C146099
:100ED000C85403B0F0BD00220330C0B21A70F0E76E
:100EE0008B4C0023894A2360137003B0F0BD884CFB
:100EF0002668002EF5DD874D012E2A7802F03F028C
:100F000002F1FF3232D069782A2A5ED8DFE812F087
:100F100094005D005D005D005D005D005D005D00B2
:100F20005D0027029D0003023F02360299005D002A
:100F30005D005D005D005D00320145021E0199000B
:100F4000F600F000DA00D200A500F701BE011B0296
:100F5000B501AF01A5019F015601E60170004E01E8
:100F6000940044013E0101221A70B2E72A2A2CD8CB
:100F7000DFE812F062002B002B002B002B002B006F
:100F80002B002B002B002B002B002B002F022C0200
:100F900066002B002B002B002B002B0000011302FE
:100FA000EC006600C400BD00A8009F0073002B0089
:100FB0008C012B0083017C0173016C012401620010
:100FC0003E001C01620012010B01032240F6FF13D8
:100FD000FE215148514D81700380014600202A6056
:100FE00003F052F9002003F007F900232B6078E7A3
:100FF0004B4D4C482978FFF7BDFD4B486978FFF70A
:10100000B9FD4A48A978FFF7B5FD4948A988FFF717
:10101000EDFD4848E988FFF7E9FD4748297AFFF7E1
:10102000A9FD4648697AFFF7A5FD454805F10A0183
:10103000FFF7FAFDFFF70EFE032240F6FF03C7E7B6
:1010400000210846FFF788FE4BE73E4A137C0F2B32
:10105000F7D8581C1074D154F3E741F6FF51304AC9
:101060002D4B92881980B2F57D4F4FEA1220C0F0C7
:10107000BB810338D8700421FD20284ED2B2FC2A4F
:101080009870316001F1010040F2AC81FD25033A16
:101090005D541A54881CFE21421C326019540020F1
:1010A0001D4903F0F1F8002003F0A6F80023336097
:1010B00017E700211A4B01F00F0208469A70FFF75C
:1010C0004BFE0EE741F6FF321549134B89781A8023
:1010D000FC2969D9CA1E0425FD21DA70FE270F4EAE
:1010E0006A1C9970326000200B495F55D9E70021D6
:1010F0000B4B08461970FFF72FFEF2E60422074D4E
:10110000114B054900200B602A6069E7E6250020A5
:1011100000240020C023002030250020B02500201E
:101120004C230020105200101852001024520010BE
:10113000445200104C5200102C5200103852001033
:101140005852001038100020FF1901FE0025FE2320
:1011500041F2FF710722AF48AF4E01608371014633
:1011600085802846326003F08FF8284603F044F863
:101170003560B6E60522FE23A64EA849A64D31608D
:10118000002031462A6033712AE70021A44B08462B
:101190005970FFF7E1FDA4E642F6FF22A0499D4BFE
:1011A00049781A80FC2995D8032597E704229A4D9F
:1011B0009C4B984900200B602A6011E79A4803F085
:1011C00057FF022142F2FF52934E924B86461A80FD
:1011D0003160002800F03481DFF85CC20025FD2773
:1011E000E64411E0802922D0033A7F29D5B25F542A
:1011F00001F1010200F03F8184469D5402317045A7
:101200004FF0010500F0E9809CF801200CF101008D
:10121000FC2AE7D87F2903DC5A5484460131EEE7E3
:10122000864500F00B8110F8012FFC2AF8D986457D
:1012300000F0D28010F8012FFC2AF8D8704500F099
:10124000CB8010F8012FFC2AE4D9F0E70021744B81
:1012500008465972FFF780FD43E642F2FF327049BB
:101260006C4B497A1A80FC299ED933E700216C4BDC
:1012700008461972FFF770FD33E642F2FF12684923
:10128000644B097A1A80FC298ED923E74FF6FF7345
:10129000634AD2889A4200F0B18041F6FF705D4BFC
:1012A000B2F57D4F4FEA12211880C0F0E280033979
:1012B000D9700420FD21584ED2B2FC2A99703060BA
:1012C00000F1010140F2A480FD25033A1D545A5457
:1012D000811CFE204A1C32605854E0E6013E0D2E6F
:1012E000A8BF0D26514932464F4803F04BFE00215E
:1012F0004B4A687832449172FFF72EFDF1E5022ED9
:101300003FF463AEB5F80130454A5BBA6878938024
:10131000FFF722FDE5E5464D2B7C0F2B02D85A1C2A
:101320002A74E9540846FFF717FD424AAB7C009245
:101330003F486A7C297CFFF73DFB002840F086800F
:1013400000232B74CDE5022E3FF43FAEB5F80130FB
:10135000334A5BBA6878D380FFF7FEFCC1E5022E02
:101360003FF433AEB5F801302D4A5BBA98B29380A2
:10137000FFF756FB6878FFF7EFFCB2E5B1FA81F3AF
:101380005B092B4A08469374FFF7E6FCA9E508467B
:10139000274B5974FFF7E0FCA3E50322FE2340F638
:1013A000FF051C491C4C00208B700D80226002F050
:1013B0006BFF002002F020FF00236420236001F077
:1013C000BFF80121084601F099FBFEE70021012347
:1013D000D7E700200721DBE795B37F2906DD0A4622
:1013E00031605CE65A5456E6032146E6FE204A1C6C
:1013F000002A326058547FF759AE50E641F6FF7725
:101400001025032000220421024B034E1F809D70F3
:101410001A545EE730250020B0250020FF15000299
:101420004C230020FF2801FE56230020C12300206A
:1014300038100020110D001055230020002DCED1B2
:10144000FE2203219A703160032228E6FE2341F236
:10145000FF1103220F48104E8370018001460020C7
:10146000326002F011FF002002F0C6FE002333605C
:1014700066E703201FE7864509D09CF80210012586
:10148000FC290CF1020011463FF6D1AED6E63260DF
:1014900005E600BF30250020B025002038B5012129
:1014A0002748FFF701FB0346264C002126482370FE
:1014B000FFF7FAFA03460F2124486370FFF7F4FAA6
:1014C000034600212248A370FFF726FB03464FF492
:1014D00080512048A380FFF71FFB034604211E48CC
:1014E000E380FFF7E1FA034605211C482372FFF76A
:1014F000DBFA03460E221A4804F10A016372FFF771
:1015000025FBA8B10020FFF78BFA16480522FE2321
:1015100005461549154C01600146002022602B71DB
:1015200002F0B2FE002002F067FE0020206038BD0D
:101530000E220F4904F10A0003F008FCE2E700BFA5
:10154000105200104C23002018520010245200109A
:10155000445200104C5200102C520010385200100F
:101560005852001030250020FF150002B025002041
:10157000045200104FF050422DE9F84F6D4BD2F855
:1015800000A053F82A70BAF1000F2CD0DFF8B08118
:101590006FB30026DFF8A0B1DFF8A091F3080C3399
:1015A00058F8235034460836CDB105F00F012046D7
:1015B0002D09013489B15BF82A2000F00703C240ED
:1015C0004FEAD00C9B00D20701FA03F30CF18C0C0C
:1015D00002D449F82C30B8470DB1B442E5D3202EDF
:1015E000DCD1BDE8F88FDFF85C81002FD1D1524803
:1015F000F90801F10C0358F82330002B7BD013F0CD
:101600000F054FEA13120AD050F82A40FC40E607B3
:1016100003D44A4C8C3144F82150002A6BD012F08C
:101620000F024FEA13210DD050F82A407D1CEC40E8
:10163000E40705D4EC08414D12018C3445F8242010
:10164000002958D011F00F014FEA133207D050F89B
:101650002A40BD1CEC40E60757D5002A4BD012F0BB
:101660000F024FEA134107D050F82A40FD1CEC400E
:10167000E40751D500293ED011F00F014FEA135273
:1016800007D02D4C54F82A503C1DE540EE074AD5B2
:101690008AB312F00F024FEA13610DD0264C54F8B2
:1016A0002A507C1DE540ED0705D4244DE4081205C1
:1016B0008C3445F82420F1B111F00F014FEA137377
:1016C0001FD01D4CBD1D54F82A20EA40D60705D472
:1016D000EA081A4D09068C3245F822105BB154F81D
:1016E0002A10FA1DD140C90705D41449D2081B0796
:1016F0008C3241F822300837202F7FF479AFBDE8D3
:10170000F88F002BF7D00C4CE9E7EC080B4D0902E1
:101710008C3445F82410A0E7EC08084D12038C34F3
:1017200045F82420A6E7054DE40809048C3445F863
:101730002410ADE7A01D00203C23002000800240C3
:10174000908202404882024010B4084CC90041EA2D
:10175000820154F8202004EB8003514003F58053AC
:1017600001F00C015DF8044B1960704704800340E0
:101770002DE9F0434FF050491F46DFF89880D9F823
:101780000030164658F8232004460D4683B032B385
:1017900087B348F823704FF050431B68BBB1194B17
:1017A000E10804F00704184AA40005FA04F403EB66
:1017B00081038C3142F821405EB10121152003F5EF
:1017C00000531C6003B0BDE8F04300F01DB90F4B9F
:1017D000E6E703F540531C6003B0BDE8F083002F3B
:1017E000DCD015200A4948F8237000F05BF9D9F8DD
:1017F0000030D3E715200649019300F047FA019B1A
:10180000C7E700BF90820240008002404882024049
:1018100075150010A01D002030B44FF0000343ECFC
:10182000440043EC400005254FF480740B4BC2008C
:1018300053F8201003EB800081F0400102F1804357
:1018400003F5203301F0C00200F5805100F540504F
:101850000A605D60046030BC704700BF04800340D4
:101860000FB400B583B0049C074801F02BFC3CB1D9
:1018700005A92046019101F0E1FA044801F022FC9B
:10188000012001F0F3FA00BF9C520010AC5200108E
:1018900070B58646EFF3108572B6124CD4E8CF6F60
:1018A0000120002EFAD1C4E8460F002EF6D1BFF376
:1018B0005F8F4FF0010CC80801F007030CFA03F327
:1018C0001EF800C01CEA030608D14CEA030C0EF80F
:1018D00000C0C4E88F6F85F3108870BD1046FFF715
:1018E000BFFF00BF3F1B0020F8B5EFF3108772B6B3
:1018F0001C4ED6E8CF5F0124002DFAD1C6E8454F33
:10190000002DF6D1BFF35F8F9A421BD8012502E06C
:101910000132934222D3D40810F804E002F0070CFD
:1019200005FA0CFC1EEA0C0FF2D14EEA0C0E00F880
:1019300004E010460023C6E88F3F87F310889842E2
:1019400007DBF8BD0023C6E88F3F87F310884FF010
:10195000FF300029F5D00698FFF782FF4FF0FF30E7
:10196000E8E700BF3F1B0020044A1078431CDBB2AD
:10197000182B28BF10231370704700BF4B10002096
:1019800010B5054C82B001461F231822009403486D
:10199000FFF7AAFF02B010BDB0520010A81D002032
:1019A0004FF0E022936843F000539360704700BF0C
:1019B0000021044B03F12002C3E88F1F013393423F
:1019C000FAD17047341B00204FF0E0234FF08032F3
:1019D000C3F80024C3F80424C3F80824C3F80C2473
:1019E000C3F81024C3F81424C3F81824C3F81C2423
:1019F000C3F82024C3F82424C3F82824C3F82C24D3
:101A0000C3F8302462B67047012300F01F029340F0
:101A1000400941B1800000F1604000F56140C0F82C
:101A2000803103607047024A203042F8203070470E
:101A300000E100E0024B10309B6853F82000704733
:101A400000ED00E0F8B50D46EFF3108772B6124EC8
:101A5000D6E8CF2F0123002AFAD1C6E8423F002A58
:101A6000F6D1BFF35F8F0D4B00F110049B680C4A59
:101A700053F82430934203D0994201D001F0C6F8C4
:101A8000064B9B6843F82450BFF35F8F0023C6E8E2
:101A90008F3F87F31088F8BD3D1B002000ED00E06C
:101AA000110100102DE9F04F81468B46164683B098
:101AB000EFF3108372B6DFF8D0A10093DAE8CF1FFE
:101AC00001230029FAD1CAE8413F0029F6D1BFF32A
:101AD0005F8F664B93F90040002CC0F2A080644DEC
:101AE00004EB440705EB870898F8061009F1100984
:101AF0001970604BBF009B6853F829006300411BBD
:101B00002F292FD95C49884240F0A4801C445B4BAC
:101B100002372F44043BDB1BC3F34A036FEAC34382
:101B20004FF421416FEAD34325F8241005EB8404D8
:101B300063804BF60153A380FF2348F00100E67158
:101B4000C4F808B0A3714B4B9B6843F82900BFF35E
:101B50005F8F0023CAE88F3F009B83F3108803B098
:101B6000BDE8F08F20F0010E9EF80710B1422ED88C
:101B70004FF42143EB53414BB91C2944043B043738
:101B80005B1A2F44AEF10401C91BC1F34A043C495E
:101B9000C3F34A030B432143A8F804103949A8F8BA
:101BA00002304AF6AA2073465B1B5B415843000D86
:101BB00088F8076088F80600C8F808B048F0010007
:101BC000CEF80010BFE7D179B1422ED996469EF9E2
:101BD00006C00CEB4C02BCF1000F05EB8202F2DAFE
:101BE0004BF601510EF10402A8F10407BF1AC7F326
:101BF0004A076FEAC7476FEAD7478EF8064003EBFC
:101C00000408204C05EB8803AEF8047045F8284022
:101C1000998083F806C0DE71C3F808B093E700F03E
:101C2000F5FF124B93F9004059E7724632F8041F52
:101C3000490514D44915023102EB410101916FF0BD
:101C40000701C91B019F491B3944C1F34A0141F4F3
:101C50006041C9E7019300F0D9FF019B56E701F508
:101C6000FF1101F5FF511F31E4E700BFE32500201C
:101C70004C10002000ED00E0110100107C1000204D
:101C800000E0FFFF014880473D1B00202DE9F04F99
:101C900083B0EFF3108A72B6714ED6E8CF2F0123CE
:101CA000002AFAD1C6E8423F002AF6D1BFF35F8F7F
:101CB0006C4B00F110089B686B4A53F82850954212
:101CC00045D08D420C4650D0684FEB1B2F2B3ED891
:101CD00001214FEA50194FEA890909F1604909F5D4
:101CE000614900F01F0301FA03F0D9F80030C9F888
:101CF000800000EA030BBFF35F8FEFF30581C9B2E9
:101D0000002934D0884505D0CDE9001000F07EFFD1
:101D1000DDE9001025F0010EDEF808C0644505D1AC
:101D200089E0D3F808C0644531D09E469EF906206C
:101D300002EB4203002A07EB8303F2DA644561D029
:101D4000BBF1000F20D0C9F88001C9F80000454B55
:101D50009B6843F82850BFF35F8F0023C6E88F3F8E
:101D60008AF3108803B0BDE8F08F1546EFE725F041
:101D7000010EDEF808C06445D8D19EF906407346CE
:101D8000002C08DA154646E0C9F88000DFE793F931
:101D90000640002C37DB04EB440C07EB8C0C9CF862
:101DA0000710DCF80820D9719A609CF906206100C0
:101DB000002A9A713DDBBCF804E05FEA4E5E05D56F
:101DC0000EF5FF1E0EF5FF5E0EF11F0E6FF0070CF5
:101DD0000A194FEA6E5E920002EB4E0208323A4454
:101DE000ACEB030C6244C2F34A026FEAC2426FEAF0
:101DF000D2429A801E4B21441A7807EB81011C7055
:101E00008A719DE77346D9B9FF228EF806204BF6FA
:101E10000152AEF80420164C4AF6AA2294F800C0EB
:101E20001946C91B49414A43120D83F806C0227066
:101E300086E7104ADDE79EF906407346002CAADAD1
:101E40000D4A0E4CD21A083AC2F30A316FEA015118
:101E50006FEA115144EA5202DA80998070E700BFBC
:101E60003D1B002000ED00E0110100104C1000208F
:101E7000E325002001BDFFFF8610002000F8FFFFD2
:101E8000F0B5EFF30585EDB2EFF3108C72B626498D
:101E9000D1E8CF2F0123002AFAD1C1E8423F002A1E
:101EA000F6D1BFF35F8F214E40F0010EB4684AF6C1
:101EB000AA2354F825701E4A0446A41A64416343B9
:101EC0001B0D77455BB21BD092F906409C421CD09B
:101ED00092F912409C4223D092F91E409C4221D09C
:101EE00092F92A409C4208BF03240FD0114A0024D3
:101EF000157813708571C1E88F4F8CF31088F0BD91
:101F0000B2680D4C42F82540F0E7002404EB44048D
:101F100002EB8402FF2494714BF601549480E5E7B0
:101F20000124F3E70224F1E73D1B002000ED00E06F
:101F30004C100020E325002011010010014B0B4440
:101F400003607047341B002070B5104C104DAC423C
:101F50000ED2FF26236863B1FFF706FD0146204637
:101F6000FFF7ECFFA680BFF35F8F0834AC42F1D3DC
:101F700070BDFFF7F9FC01462046FFF7DFFF267131
:101F8000BFF35F8F0834AC42E4D370BDD0100020A3
:101F9000D810002010B50446FFF7E6FC01462046A5
:101FA000FFF7CCFFFF232371BFF35F8F10BD00BF8E
:101FB00010B504460120FFF7E3FC034B0344236004
:101FC000BFF35F8F10BD00BF341B00200D4B1A689C
:101FD000EFF3108172B6D2E8CFCF0120BCF1000F31
:101FE000F9D1C2E84C0FBCF1000FF4D1BFF35F8F01
:101FF00000221B68C3E88F2F81F3108840BF0020A8
:1020000000217047B42500202DE9F04F2DED028B03
:1020100085B0EFF30583DBB2103B9A0818BF0122AD
:102020004FF0010103F0030B18BFAF4DAF4B08BFDA
:10203000AF4D0BEB820253F8226001FA0BF205F56B
:1020400041539FEDA78B01925A602FE0B3881C0487
:1020500040F19380B379002B40F0DD80B6F9082081
:10206000002AC0F21E81736902EB420203EBC20335
:10207000D3E90247B7F1FF3F08BFB4F1FF3F0ED0ED
:1020800005EB8B01AB6A0A69D21AE31A934205D3B6
:1020900001232A6A03FA0BF3134200D10C6128468C
:1020A00000F0A4FBA042B941C0F2FB80B6F90830B1
:1020B000019A002B0093EA63C8DBD6F8148003EB87
:1020C0004309284608EBC907D7E9024A00F08EFB0E
:1020D000A04271EB0A01B9DBBAF1000FC0F2C38074
:1020E000D7E90431834A934200F0ED807A88B6F94B
:1020F000080092B242EA0040984702460B4652EA74
:10210000030100F0B080002B80F2D180B4EB020E0E
:102110006AEB030A38F93930C7E902EA002B95DB8C
:10212000716903EB430201EBC202D2E90270BE45C2
:102130007AEB000C4FEA430288DBB4462CF8083FE8
:1021400006E003EB430001EBC0005A00D0E9027047
:10215000BE451A447AEB000001EBC20404DB31F9FE
:102160003230A446002BECDA28F83930009BACF86A
:102170000030B3881C043FF56DAF3369EFF3108274
:1021800072B6D3E8CF0F01210028FAD1C3E8401F6F
:102190000028F6D1BFF35F8F4FF6FF74B08800239D
:1021A000316900B2B480C1E88F3F82F31088984251
:1021B000FFF650AF0746A946746906F1080807EB19
:1021C000470E04EBCE03D3E90250B6F90830C446FB
:1021D000002B13DBB246009704E034F93630944606
:1021E000002B09DB03EB430604EBC602D2E90271C4
:1021F000BD4270EB0101F0DA5646009FACF800706A
:1022000034F93E7024F83E30002FD8DAB3794D46C9
:10221000002B3FF423AF0023B371B6F9083006F169
:102220000808581C3DD01A46776903E08046591CBF
:102230003FF416AF03EB430107EBC100B0F802C057
:102240001C461CF4004F9E4637F93130EED09442C4
:1022500080ED028B05D0A8F80030328927F83120B4
:1022600034817246E3E738F8393033813369EFF36C
:10227000108272B6D3E8CF0F01210028FAD1C3E84B
:10228000401F0028F6D1BFF35F8F7388316928F8AB
:102290003930009B73800023C1E88F3F82F31088A0
:1022A000D4E640BF05B0BDEC028BBDE8F08F2846F8
:1022B000CDE9022300F09AFA029A039B10EB020E7A
:1022C00043EB010A26E708460B690291984700286C
:1022D000C9D00299D1E9002311E700BFAFF3008014
:1022E000FFFFFFFFFFFFFFFF00800B401C230020CC
:1022F00000000B40092000102DE9F84F364C2569ED
:102300002DB1BDE8F84F0A213448FFF717BEDFF8BA
:10231000E4800321404600F04DFA0326C4F80C8007
:10232000FFF722FB4FF0504C2D4B267003442361E6
:10233000DCF800300F216370636961801D834FF00A
:102340000405A3F878504FF00505A3F890504FF01E
:102350000605A3F8A8504FF007050E214FF6FF72AF
:1023600008274FF00A0EA3F8C0504FF001094FF0B4
:102370000C0C4FF0020B4FF0090A0D204FF00B052B
:10238000A3F868111749A280A3F808E1A160A3F897
:1023900048B0A3F8F0A0A3F82051A3F838C1A3F8DF
:1023A0005001A3F83090A3F86060A3F8D8701A80A9
:1023B0000D4B3046C8F820700C49DC60FFF742FB3B
:1023C00049463046FFF720FB094B0A211F640348AA
:1023D000BDE8F84FFFF7B2BD94100020B4250020EF
:1023E000341B0020FFFF10001C23002009200010D8
:1023F00000200B4000000B400146F0B50069EFF3F0
:10240000108772B6D0E8CF5F0124002DFAD1C0E862
:10241000454F002DF6D1BFF35F8FB1F902E04C6953
:102420000EEB4E0CBEF1000F4FEACC05086904EB31
:10243000CC0C3CDB665B4E800026C0E88F6F87F3D8
:102440001088BCF80200CCE902230130C0F30E0072
:10245000012838BF0120059BACF80200CCF81030F1
:10246000069B40EA0E40CCF814300B69EFF3108263
:1024700072B6D3E8CFCF0127BCF1000FF9D1C3E882
:102480004C7FBCF1000FF4D1BFF35F8F8B88635397
:10249000A1F804E00B69C3E88F6F82F31088012272
:1024A000CB68097803F501538A405A60F0BD0023D8
:1024B000C0E88F3F87F310884FF0FF30F0BD00BFBA
:1024C00003464089B0EB214F37DD58690A1402EB0F
:1024D000420210B500EBC2001C69EFF3108C72B61B
:1024E000D4E8CFEF0122BEF1000FF9D1C4E84E2F9E
:1024F000BEF1000FF4D1BFF35F8F428889B292B270
:102500008A4207D000221B69C3E88F2F8CF3108802
:10251000002010BD42F400424280012100221869CF
:102520009971C0E88F2F8CF310881C78DA68084600
:1025300002F50153A140596010BD0020704700BF53
:102540002DE9F04182B0064600F058F94FF47A7355
:1025500004464FF0FF306FF00042E6FB0341A0421B
:1025600072EB01033ABF044615460D46A61F45F11E
:10257000FF37B44275EB07033CBF0026374600F037
:102580003DF9301A67EB0101012871F1000106DA0B
:102590002046294602B0BDE8F04100F039B900F00C
:1025A0002DF9864267EB010100290ADB0021174B58
:1025B0003246009316483B460191FFF71DFF01305C
:1025C000E6D04FF0000C134A1349536A9F4204D8D7
:1025D000906AB042DCD29F42DAD10B68EFF31080F0
:1025E00072B6D3E8CF8F5FF0010EB8F1000FF8D1CB
:1025F000C3E848EFB8F1000FF3D1BFF35F8F0B686A
:10260000C3E88FCF80F3108820BFDEE7CD1F001016
:102610009410002000000B40B42500202DE9F04369
:1026200006460D4683B0EFF30584E4B23CB12D4B72
:102630005A6AAA421CD2002003B0BDE8F0832A4F98
:10264000D7F80C9097F80080484600F0CFF808F1D2
:10265000040859F828301B1A301A65EB010198421A
:1026600071F1000110DB20BF1E4B5A6AAA42E2D36F
:1026700014BF012400249B6AB34234BF204644F0B7
:10268000010003B0BDE8F08300F0B8F8864265EBC6
:102690000101002914DB154B3846CDE900343246E0
:1026A0002B46FFF7A9FE011E0ADD0E4B5A6AAA420D
:1026B00016D39B6AB34211D30B48FFF701FFB6E76D
:1026C000084B5C6AAC42B6D3641B18BF01249B6AFA
:1026D000B34234BF204644F00100ADE7AA42EBD13B
:1026E00020BFE9E700000B4094100020CD1F001030
:1026F0002DE9F041EFF30580C0B2A0F110035FEACD
:10270000930C14BF254C264C00F00300EFF3108708
:1027100072B6244DD5E8CF2F0123002AFAD1C5E89F
:10272000423F002AF6D1BFF35F8F01231E4E834044
:1027300016F80CE004F541512EFA00F212F00102F5
:10274000E3634B6018D0194900EB8C0251F822105A
:10275000D4F82480884515D32EEA030306F80C30FC
:10276000134B002153F82230C5E88F1F87F31088E0
:1027700033B1BDE8F0411847C5E88F2F87F31088C3
:10278000BDE8F08104EB8003196900221961C5E8F6
:102790008F2F87F31088BDE8F08100BF00800B40C9
:1027A00000000B403E1B0020D8250020B82500204B
:1027B0007C1C002010B4054B054C064AA04214BFF7
:1027C0001846581C5DF8044BFFF762B8AC1D00209A
:1027D00000800B40CC5200100146024A0248FFF72D
:1027E00057B800BFCC520010AC1D00200346416A10
:1027F0000A46986A596A8A42FAD17047034B596A65
:102800000A46986A596A9142FAD1704700000B4013
:10281000074A536A9942FCD8994207D1044B02E017
:102820005A6A914202D19A6A9042F9D8704700BF21
:1028300000000B40F8B504460D46EFF3108772B662
:102840001D4ED6E8CF2F0123002AFAD1C6E8423F19
:10285000002AF6D1BFF35F8FC1B1FFF7EBF817493C
:1028600081420AD02046FFF7EDF801212046FFF70C
:10287000CBF80123124AA3401364124B43F82450AF
:102880000023C6E88F3F87F31088F8BD0122DFF8E8
:1028900038C00C4B824043F824109CF800300749A4
:1028A00023EA02038CF80030FFF7F0F929462046AE
:1028B000FFF7AAF8E4E700BF3E1B0020F126001056
:1028C00000200B407C1C0020D82500202DE9F0477B
:1028D0002B4C616A8C46A56A616A6145FAD19542C2
:1028E00099412CD2EFF3108872B6264FD7E8CF5F0C
:1028F0000121002DFAD1C7E8451F002DF6D1BFF305
:102900005F8F0126DFF888E086409EF800901E4D1C
:1029100049EA060C011D5FFA8CFC8EF800C0E663E4
:1029200044F8212045F82030216A31400AD10020A6
:102930000023C7E88F3F88F31088BDE8F0870120A7
:10294000BDE8F087616A0E4C0D46D4F828A0616A94
:10295000A942F9D1924571EB0303E8D3E1450CD0CC
:1029600001224309094900F01F00603382402662BA
:10297000E66341F823208EF800900120D8E700BFDD
:1029800000000B403E1B0020B825002000E100E0C5
:10299000D825002000EB400C4FEA8C0C0CF1804C49
:1029A0000CF5803CF0B51646DCF80420051FB2F5A6
:1029B000803F38BF4FF48032EDB238BFCCF80420EE
:1029C000012D2AD94FF40067254C0CF540521760B1
:1029D00054F82020B2B9DCF80020012D82EA46121A
:1029E00002F0E0020CF5805632602AD94FF4006103
:1029F00044F820304FF480330CF500521160CCF8CD
:102A00000430F0BD6769B7FBF2FE0EF1010E0EEB6C
:102A10004E0EBEF1030EFCD2DDE70129D2D1032414
:102A20000CF540521460DCF80820D207FBD5DCF826
:102A300000200B4C82EA461202F0E0020CF58056B0
:102A400032600122DCF800504D4005F0030535608E
:102A500002FA01F1DCF808200A42FBD0C6E700BF09
:102A6000B01D0020014B53F820007047B01D00201E
:102A700070B4039D04682D0345EA03451B4B002CED
:102A8000B3FBF1F3B2FBF3F61FDB194A194B90428B
:102A900014BF4FF480424FF40042174C1A6003F504
:102AA00080531A60A36832EA0303FBD1212200F5A8
:102AB00040530433016086601A600268002AFCDA21
:102AC0000822C5601A6070BC7047036803F03F03BA
:102AD0008B42DAD18368C3F30B03B342D5D1C36809
:102AE00003F4EE23AB42D0D1EDE700BF001BB700EB
:102AF00000800540002002400000024030B44FF04A
:102B00008045174B174A184CDA61184A03F54053B1
:102B10001D6094604FF0E06249B1A3F580531A60E4
:102B200040B930BC4FF00042114B1A6070471A6038
:102B30000028F6D04FF47A7303FB00F0B0F1807FE9
:102B40002ABF6FF07F43034618464FF08042094C7E
:102B500003492360064B486030BC1A60704700BFD1
:102B600000800D402131B76AF3FFFF0100A0014052
:102B700000A00D40FC210020012300EB400080005C
:102B800000F1804000F5841041600360704700BF91
:102B90000023DB8A002242E800F2520201D4102115
:102BA00018470421184700BF034AD2F82838002BE1
:102BB000FBD0BFF35F8F704700000E400021044B35
:102BC000044ABFF35F8F43F8041B9342F9D1704767
:102BD0000C080E402C080E4010B44FF48D704FF4CA
:102BE0002A64064A064B07491460D060196053688E
:102BF000002BFCDA5DF8044B704700BF00800440F6
:102C000000A0044000B0FA00704700BF08B50148BA
:102C1000FEF726FEF052001038B5054C054DAC42CB
:102C200004D254F8043B9847AC42FAD338BD00BFF5
:102C3000B8510010F851001010B40748074C084B69
:102C4000084A094904601A608B6832EA0303FBD121
:102C50005DF8044B704700BF002002407F3BEFEF60
:102C600000300240F6FFF30300000240044BDB6C2F
:102C7000B3F5004F03D14FF48022024BDA64704762
:102C800000001150002011504FF0E022044BD2F808
:102C9000881D0B43C2F8883D10EE3004704700BF1A
:102CA000030330006FF06041044B054A19609368DC
:102CB000DB4333F06043FAD1704700BF003002407D
:102CC0000000024010B545F25320FFF761FFBDE858
:102CD000104003460420184710B545F25320FFF773
:102CE00057FFBDE81040034601201847FEF760BEBD
:102CF0001449154B70B55C1AA610442E324628BFF5
:102D00004422124D9200284602F03CF9B4F5867F29
:102D100013D80F4AC6F1440012D02B19410803EB17
:102D2000C101C3E9002208338B42FAD1C30704D59D
:102D300020F00100304445F82020064B9D6070BD16
:102D40004320F8E7000000101001001000000020F0
:102D50001101001000ED00E0002370B52B4C82B093
:102D6000C4F88430FFF738FF0122294BDA63636C23
:102D7000012BFCD10321264A244B11639C6B012CAF
:102D8000FCD10226052521460523224A2248009629
:102D9000FFF76EFE21462B46204A21480095FFF79B
:102DA00067FE0022042031461E4BFFF7F3FD21464B
:102DB000284600221C4BFFF7EDFD0022082011469B
:102DC0001A4BFFF7E7FD002209201146174BFFF7CA
:102DD000E1FD002206201146134BFFF7DBFD002228
:102DE000114B07201146FFF7D5FD0420FFF73AFEEF
:102DF00000240F4BA3FB0035AD0CE0B22946013493
:102E0000FFF7BAFE062CF8D102B070BD00000140F9
:102E100000300140002F685900000540008C8647B3
:102E200000800540001BB70080D1F008006CDC0278
:102E300083DE1B4300B9704700F002B910B5094B9F
:102E400084B01C684CB1034600914FF0FF3203A9D7
:102E50000548A047012004B010BD00F033F920461A
:102E600004B010BDF8210020352E001000BEFDE793
:102E700008B5FFF7FBFF00BF38B5064C064DFFF75E
:102E8000CBFEAC4204D254F8043B9847AC42FAD390
:102E900038BD00BFF8510010045200100368084606
:102EA000114618472DE9F0411546427D07468846F0
:102EB000002A46D0002D1DDD0B780A2B23D0012DD2
:102EC0004FF0000C18D04646012416F8012F214679
:102ED0000A2A04F1010422D0A542F6D165450BDC93
:102EE00008EB050313F8013CA3F10D03B3FA83F3D8
:102EF0005B093B75BDE8F0813B68A5EB0C0108EB75
:102F00000C009847ECE7037D002BD8D10368022121
:102F10000F489847012DE3D04FF0010CD3E716F886
:102F2000013C0D2BD8D08C4508EB0C00A1EB0C011B
:102F300001DA3B689847022105483B689847A44658
:102F4000CAE7294640463B68BDE8F041184700BF44
:102F5000645400102DE9F04782B00D4691461C469E
:102F60000646FFF74BFC4FF0FF3C6FF000472E4A40
:102F7000821841F10003944577EB03013CBF6246A0
:102F80003B462A4802F00CF96B1C804640D00CB33B
:102F9000274F284B1C68B4B1B9F1000F1CD1DFF8E2
:102FA0009C9001E0246974B12368002BFAD0D9F811
:102FB00000300BB19C42F5D120462A463146B84735
:102FC0002469002CF0D1B8F1000F26D1284602B0B8
:102FD000BDE8F087184FDCE74FF00A0ADFF85C9095
:102FE00002E02469002CEED02368002BF9D0D9F838
:102FF00000300BB1A342F4D12A4631462046B847EF
:10300000012220460DF107018DF807A0B847E8E737
:10301000304602F02DF80546B9E7044802F0B4F84E
:10302000284602B0BDE8F08740420F00D0100020D3
:10303000A52E0010D81D00209D2E0010E01D0020A0
:10304000F0B583B006468DF80700FFF7D7FB4FF0C9
:10305000FF356FF00044174A821841F10003954292
:1030600074EB03013CBF23462A46134802F098F84C
:10307000124B07461C689CB1114D01E024697CB1DC
:103080002368002BFAD02B680BB19C42F6D1204666
:1030900001220DF10701FFF705FF2469002CEFD194
:1030A00017B9304603B0F0BD034802F06DF8304662
:1030B00003B0F0BD40420F00D0100020D81D00200A
:1030C000E01D002038B5044601F0D2FF012305467B
:1030D0001A4620462946FFF73DFF084B1C682CB1D5
:1030E00063682BB198472469002CF9D1284638BD74
:1030F0002469002CF4D1284638BD00BFD81D00201B
:1031000070B500F02DF90C234026194CFF22A3675F
:103110000E201849FEF7C6FC32460021164801F081
:10312000C7FD0125002380211348144A41844570BE
:103130000683068782604360136042F8043C80F88F
:10314000213080F83B3043620D4B4FF00056C36096
:10315000C362803B836202F027F84FF48032094952
:10316000094B25642846E664C4F89010DA6470BD03
:1031700000001150D5050020F81D002084001050DB
:103180000001105010D001000020115001210E202C
:10319000FEF73ABC00220248114600F001B900BF18
:1031A000181E0020044B197021B14FF40032034B5C
:1031B000C3F89020704700BFDD250020002011508B
:1031C0000B785B0602D14B78052B00D070474B88FB
:1031D000014ADBB21360704700001150CB782DE933
:1031E000F04103F0030EBEF1010FC3F301005BD009
:1031F000002791F802C0344C0CF07F0256008988F9
:1032000006EBDC1304EB43134FEADC15D876C1F36D
:103210000A0185F0010083F802C019835870DF703D
:10322000D3008DBB2948043304EB821C03EB000858
:10323000CCF808801F5082B3254BD2001344CCF841
:103240000430244B3F311A6821F03F01BEF1020FD8
:1032500008BF4900114419601F4B771904EB471749
:103260009942FA602BD82E4404EB4613D97E82F0A3
:10327000A04282F480125B6842EA816242F000421E
:103280001A600120BDE8F081104804EB821C034461
:10329000CCF8283040F832704AB900220F4904EBCC
:1032A0004513D9605A60ECE70020BDE8F081D200F8
:1032B00002F1A04202F58012CCF82420C1E7FFF70A
:1032C000A5FCFA68CFE700BFF81D00208000105071
:1032D0000400105000220020FF0F10500001105079
:1032E00001F062BF8C4608B5114607481A460CF03B
:1032F0007F034FEADC1C0CEB430C00EB4C1000F09E
:103300004FF8012008BD00BFF81D002011F07F021A
:1033100005D100290CBF02200120064B9866C9097F
:10332000054B01EB420003EB40104FF4006200211B
:1033300001F032BF00201150F81D002011F07F0372
:1033400000D17047002205485B0003EBD11300EB6E
:1033500043106FF40061C27001F01EBFF81D002021
:103360004FF0805209480A4908B50A4B02600A60CA
:103370009968C94311F08051FAD14FF48052064840
:1033800001F096FC0922054B5A6708BD0020024057
:1033900000300240000002400000105000001150B8
:1033A00000234FF0010C10B580F81AC08282C3824E
:1033B0000161044601F0FCFE20B14FF40032074BDE
:1033C000C3F89020204601F0D3FE10B101232377EB
:1033D00010BD2046BDE8104001F0D2BE00201150C3
:1033E000002070472DE9F0414FF000081C4D0446C5
:1033F00042462B781B4F1C4E0DE0336813EB4213F3
:1034000024D0DB682046984708F101082B785FFA42
:1034100088F2934206D39342A2EB0303EDD807EB65
:103420004313EEE754220021104801F041FC4FF015
:10343000FF330E482022041D4360C4E90133E360DA
:10344000FF21BDE8F041143001F032BC4FF0E02321
:10345000D3F8F03DDB0700D500BEBDE8F08100BF2A
:10346000DC2500206854001010180020601B00208C
:10347000704700BF704700BF0020704700207047B2
:1034800000207047704700BF704700BF704700BF03
:10349000704700BF024B5878003818BF01207047B2
:1034A000601B0020024B1878C0F38000704700BFFB
:1034B000601B00202DE9F047DFF8E49099F8003018
:1034C000FF2B55D10D4600293DD000215422064640
:1034D000294801F0EDFB0022284C294B20461A70A8
:1034E000FEF758FD274B28481C60284CFEF760FD6E
:1034F000204601F085FB264A264B146023B126485E
:10350000AFF30080254B18604FF0000A224C534661
:103510002278DFF89080214F0DE03A6812EB4313D8
:1035200011D05B687BB198470AF1010A22785FFAF3
:103530008AF3934211D89342EFD39B1A08EB4313BB
:103540005B68002BEFD14FF0E023D3F8F03DDB07B1
:1035500000D500BE0020BDE8F0872946304689F836
:103560000060FFF7CDFD0028EDD03046FFF70EFEDE
:103570000120BDE8F08700BF601B0020581B002021
:10358000DE250020B41B0020C0100020AC1000205D
:10359000B81B002000000000DC25002010180020CF
:1035A000C8100020685400102DE9F04FDFF8B092E9
:1035B0008BB099F80030FF2B00F0ED80A24CA34DAA
:1035C000DFF898A2DFF89CB226687369EFF31082E7
:1035D00072B6D3E8CF0F01210028FAD1C3E8401F0B
:1035E0000028F6D1BFF35F8FB261304607A901F022
:1035F00051F900237269C2E88F3FB36983F31088E1
:10360000002800F0C8809DF81D30013B072B00F218
:103610006B83DFE803F0A5AF939B8C350A04089B0E
:10362000002BD1D009989847CEE79DF8201001F0E3
:103630007F0605EB460000EBD11090F8343023F004
:10364000010380F8343090F8343023F0040380F81C
:103650003430002E00F0A280027D9AF800309A42A9
:1036600080F091807A4B1B6813EB421300F08C8042
:103670009E699DF82120099B9DF81C00B047A3E797
:103680009BF80030002B7FD09BF80030013BDBB271
:103690008BF800309BF8003003F0FF00002B93D133
:1036A0006A4F9DF81C803B7843F001033B7097F80C
:1036B000343060F3000387F8343097F8343060F327
:1036C000820387F8343097F8353060F3000387F8C9
:1036D000353097F8353060F3820387F8353000F0E5
:1036E0005BFC9DF8203003F06002602A66D0402A1F
:1036F00076D003F01F03012B00F0B680022B7BD0A5
:10370000002B5BD1202A00F0DB81002A56D19DF8E6
:103710002130092B52D8DFE813F0A20194015100A7
:10372000B301510087015D0151005201E5002B7882
:10373000D9077FF549AFFFF7ABFE45E7EB78DA072E
:103740007FF542AF0898FFF795FE3DE72B78D80745
:103750007FF53AAF2878C0F3C000FFF797FE33E754
:103760009DF81C00FFF73EFE00F00CFC9DF8203099
:10377000AB7029E79DF81C00FFF734FE00F002FC57
:10378000FFF782FE20E711D04FF0E023D3F8F03DA1
:10379000DC0700D500BE0BB0BDE8F08F099B9DF89B
:1037A00021209DF81C0000F00BFC0DE7294B5FE782
:1037B000FDF77AFA0246002840F079814FF0E023C5
:1037C000D3F8F03DDE0700D500BE9DF81C000021B7
:1037D000FFF79CFD80219DF81C00FFF797FDF3E6A5
:1037E0001D4800F0D9FB0121404608AAFFF7F8FD6B
:1037F00000287FF4E9AEE8E79DF8241011F0700F7F
:10380000DCD101F07F0607EB4600144B00EBD11032
:103810001B78007D7600019698424FEAD1160096FB
:103820004FD340F05F810B4E002A00F05F8170693A
:1038300000F0B2FB01214046736908AA98470028AE
:103840007FF4C2AEC1E700BFB81B0020601B0020A0
:103850001018002068540010E1330010DC2500200F
:10386000C8100020DE2500209DF824300F2BACD896
:10387000AA4A3B441B79127893422DD3A5D1A84E76
:10388000706900F089FB01214046736908AA9847D6
:1038900000287FF499AE9DF8203013F0600694D193
:1038A0009DF821300A3B012B8FD800F075FB9DF865
:1038B00021300A2B00F0F181404608A900F0F0FA0F
:1038C00082E6984B1B6803EB4016002A00F00E813D
:1038D000002E3FF47AAFAAE7924A166816EB431619
:1038E000CED172E77B789DF822609E4200F04C8139
:1038F0007B78002B40F0BD817E70002E00F042816D
:10390000701EC0B2FDF7D0F90346002800F05E81BA
:103910004278022A40F05A81C17903F10906C1F3C5
:1039200040121201C1F3801142EA41123146387847
:1039300020F0300002433A705A88CDF808809A1877
:103940000092009B8B4240F2A3814B780B2B00F03E
:10395000AE814FF0010C042B40F038810023009A17
:103960001E46521A92B201926C4ACDF80CC01278DF
:103970001DE06C4A126812EB461800F02781019A8C
:1039800005930298D8F8103004919847059B0828B1
:103990000246049903F1010303D90198904280F093
:1039A000F8805E4ADEB21278B242C0F00F81B242B5
:1039B000A6EB0202DDD85A4800EB4218DFE77B781D
:1039C00040468DF81A300DF11A02012308A900F0C3
:1039D00081FAF9E5BDF82200030A013B020AC0B2F0
:1039E0000E2B3FF6F2AE01A151F823F0FD3B001083
:1039F0009D3A0010393C0010CB370010CB37001037
:103A00001B3C00109D3A0010CB370010CB37001044
:103A1000CB370010CB370010CB370010CB3700105E
:103A2000CB370010EF3B001008A800F0BBFA40466F
:103A30009DF82210FFF7AEFB3B7843F002033B708A
:103A4000C2E5BDF82230012B7FF4BFAE3B78404683
:103A500023F0080308A93B7000F022FAB4E54046C1
:103A60003B789A0802F00202C3F340131343ADF807
:103A70001A300DF11A02022308A900F02BFAA3E56F
:103A8000BDF82230012B7FF4A0AE3B78404643F0D6
:103A9000080308A93B7000F003FA95E5022A3FF4F9
:103AA00087AEFFF7EDFC024600283FF48EAE40469D
:103AB000538808A900F00EFA00287FF485AD84E64B
:103AC0009DF824300F2B3FF680AE144A3B441B79FF
:103AD000127893421DD2134A166816EB43167FF4F0
:103AE000A6AE72E6002A7FF470AE00269DF8212073
:103AF00002F0FD03012B17D0002A7FF45FAE019B7B
:103B0000009A3B44134493F834304046C3F34003D7
:103B1000ADE77FF45AAE024E89E600BFDC250020F7
:103B20006854001010180020BDF82230B3B9012AE3
:103B300099F8000000F08880FFF7E8FB019B009AED
:103B40003B44134493F8342042F0020283F83420BB
:103B500093F8342042F0010283F83420002E3FF421
:103B600033AD706900F018FA7369012108AA404664
:103B70009847002000F010FA97F83530DF073FF53E
:103B800023AD99E6FFF780FC404608A900F088F9CC
:103B90001AE5DDF80CC0BCF1010F00F09D80BCF10E
:103BA000000F00F08A80002391F8028004E0067183
:103BB000D8B2844540F2818008EB030057FA80F0C8
:103BC00090F804E00133BEF1FF0FF0D04FF0E02396
:103BD000D3F8F03DDA0700D500BE4FF0E023D3F86C
:103BE000F03DDB0700D500BE00237B70EDE5FFF75D
:103BF00043FC024600287FF45AAFE6E5FDF750F893
:103C0000024600283FF4DAAD4046122308A900F02E
:103C100061F900287FF4D8ACD7E5FFF72FFC024606
:103C200000283FF4D2AD4046137808A900F052F9BD
:103C300000287FF4C9ACC8E5BDF82410FDF738F8BA
:103C400002460028EFD1C0E50293FFF777FB019A07
:103C5000009B3A441A4492F83410029B63F34101EA
:103C600082F8341092F8341063F3000182F83410B3
:103C700074E700214046FFF795FA4046FFF730FB16
:103C8000BB7840460093FFF7ADFB009BBB7033E66B
:103C9000DDF80880FFF7F6FB76E74046012308A928
:103CA0000DF11A028DF81A6000F014F98CE40B780B
:103CB00091F803C019444B784DE633460F48039200
:103CC000019100F05FFD0E4B01991B78039AB342FE
:103CD0001144BFF436AE79E7D8F81000094B98428A
:103CE00008BF4FF0020C5EE74FF0E023D3F8F03D41
:103CF000DB077FF569AC00BE66E400BF741B0020E3
:103D0000DC250020BD4300102DE9F84F0A9F002A52
:103D100040D00C461E4615464FF0000ADFF87C9056
:103D2000DFF87C8018E0204698F8021099F800B07F
:103D300000F0F8FCE0B121465846FFF74FFAF0B129
:103D4000A2780AF1010AD10916BF0B9B3A701A70CA
:103D50002278AA4514441DD06278052A0FD1E17853
:103D600001F00301B1420AD1A27812F0700FDAD04B
:103D70004FF0E023D3F8F03DDA0700D500BE4FF056
:103D8000E023D3F8F03DDB0702D40020BDE8F88F34
:103D900000BEFAE70120BDE8F88F00BFC810002080
:103DA000601B002038B58B7813F0700F08D04FF0EF
:103DB000E023D3F8F03DDB0700D500BE002038BD7E
:103DC000074A084B0C46084691781D7800F0AAFC7B
:103DD0000028ECD021462846BDE83840FFF7FEB960
:103DE000601B0020C81000200B46064A06481168D8
:103DF000DA09343203F07F0302EB4303184400F086
:103E00004BBC00BFB41B0020601B00200B46064AC1
:103E100006481168DA09343203F07F0302EB4303EA
:103E2000184400F063BC00BFB41B0020601B0020DE
:103E300010B5194801F07F0C00EB4C0000EBD110DD
:103E400090F834C01CF0010F08D04FF0E023D3F8F5
:103E5000F03DDA0700D500BE002010BD00F13004AF
:103E600094F804C00D484CF0010C007884F804C0AC
:103E7000FFF738FA0028F0D14FF0E021227960F303
:103E800000022271227960F382022271D1F8F03DA2
:103E9000DB07E1D500BEDFE7601B0020C810002073
:103EA00030B50B4C8C46A646054608684968002389
:103EB000AEE803009CF800102846C943C4E9023369
:103EC000BDE830401A4601F08001FFF7B1BF00BFE6
:103ED000201B00202DE9F041284F4FF00008BE467E
:103EE0008C46064608684968BA60AEE80300A7F841
:103EF0000E801546BCF80620934228BF1346BB81AE
:103F00009AB11C4633B3DDB197F90030402C28BF7D
:103F10004024002B29DB414623463046184AFFF750
:103F200087FF68B10120BDE8F0819CF800101346BE
:103F3000C943304601F08001FFF77AFF0028F1D134
:103F40004FF0E023D3F8F03DDB0700D500BE0020A2
:103F5000BDE8F0811A46397801F0800123463046E9
:103F6000FFF766FF0028DDD1EAE72246294604482C
:103F700001F008F88021024AF0E700BF201B002072
:103F8000E01A00200022034BC3E90022C3E9022209
:103F90001A617047201B0020014B1861704700BF59
:103FA000201B002030B40246044C00252346006844
:103FB0005168C4E9025530BC03C37047201B002080
:103FC00070B53D4CC90922780646B1EBD21F1D469B
:103FD00082B017D053B14FF0E023D3F8F03DDB07A8
:103FE00002D4002002B070BD00BEFAE72146FFF700
:103FF000E7F823691BB12246032130469847012088
:1040000002B070BD94F90030002B06DBA0680028D8
:10401000E7D02A46294900F0B5FFE089A168E38886
:10402000284480B229448342E081A16016D03F2D0C
:1040300014D9A28994F90040131A9BB2402B28BFCF
:104040004023002C27DB90424FF0000131D01B4A67
:104050003046FFF7EDFE0028D1D1BCE7236923B13C
:1040600002213046144A984760B121780023C943A1
:1040700030461A4601F08001FFF7DAFE0028AAD088
:104080000120BDE701463046FFF740F98021304668
:10409000FFF73CF9B3E7904208D01A46074801936E
:1040A00000F070FF8021054A019BD1E780210022AA
:1040B000CEE70A46CCE700BF201B0020E01A002014
:1040C0002DE9F0410446FFF7E5F908B9BDE8F081B4
:1040D000FFF7E8F905460028F8D14FF4127304FB06
:1040E00003F3134EF718F9780029EFD010331E446C
:1040F000304600F0BDFB3F28E8D92846F978FFF7A5
:1041000073FE0028E2D0304600F0B2FB3F28F97879
:1041100008D9084A284602EBC4124023BDE8F04102
:10412000FFF786BE2846BDE8F041FFF76FBE00BF2F
:10413000981800201418002010B50446FFF7AAF9BB
:1041400008B9002010BDFFF7ADF90028F9D14FF4F0
:104150001272034B02FB0433187900F0010010BD0A
:10416000981800202DE9F8434FF6FF734FF41274AE
:104170009A4228BF1A4600FB04F4DFF8788004F165
:1041800010054544064692B2284600F0CDFB07468E
:10419000FFF780F910B93846BDE8F883FFF782F9D8
:1041A00081460028F7D1A04498F80330002BF2D0C4
:1041B000284600F05DFB3F28EDD9484698F80310EB
:1041C000FFF712FE0028E6D0284600F051FB3F28FA
:1041D00098F8031007D9064A4846402302EBC61256
:1041E000FFF726FED7E74846FFF710FED3E700BFEC
:1041F00014180020981800202DE9F0410446FFF71C
:1042000049F910B90020BDE8F081FFF74BF90546E8
:104210000028F7D14FF4127604FB06F6DFF864802D
:1042200006F124074744384600F008FB0028E9D08F
:10423000B044284698F80210FFF7D6FD0028E1D0D8
:104240000F4E384606EBC4163146402200F06CFB98
:1042500098F80210044668B1034632462846FFF734
:10426000E7FD50B94FF0E023D3F8F03DDB07C9D5A7
:1042700000BEC7E7FFF7CAFDC4E72046C3E700BF9B
:10428000541800209818002038B54FF6FF754FF4E9
:104290001273AA4228BF2A460A4C92B203FB00447A
:1042A0000546204600F0FEFB034620461C4600F073
:1042B000C5FA3F2801D8204638BD2846FFF79CFFA5
:1042C000204638BDBC180020F0B5002483B04FF460
:1042D00012720021184800F0EBFCFF234FF4E1318B
:1042E0000822164804701448009407464371816000
:1042F000827300F1380101234FF48072103000F016
:104300006DFA01234FF4807207F59C71009307F555
:104310000E7607F1240000F061FA07F510753046BB
:10432000FDF738FE2846FDF735FEC7E90746C7E921
:104330000C5403B0F0BD00BF981800209418002062
:104340000A4A116B136A61B13BB10023C2E90C3315
:10435000D36100231362012070470120C2E90C33AE
:104360007047002BF7D0D161F3E700BF9818002009
:10437000002210B50E4C0F48237802600271DA0754
:1043800007D59B070BD5BDE8104001210A4800F076
:1043900053BC103000F034FC23789B07F3D406485C
:1043A00000F02EFCBDE810400121034800F044BCA1
:1043B0009418002098180020BC180020F0B54B7904
:1043C00083B0022B02D18B79022B03D00025284623
:1043D00003B0F0BD274FBB783BB14FF0E023D3F8DB
:1043E000F03DDB07F2D500BEF0E78B7806463B7068
:1043F0000B78CC186178242908BF092507D036E04E
:1044000023781C4461782B4424299DB207D195421E
:10441000F6D90020FFF754FE284603B0F0BD0B4646
:10442000052916D0042BF4D163790A2BF1D1124B54
:104430002778019301330093022330461A46E1198D
:10444000FFF762FC0028C8D00E3517FA85F5ADB22B
:10445000DFE721463046FFF7A5FC0028BDD0A37852
:104460007B7023785A191C44637895B2DAE70B46BF
:104470000925D5E7981800209A180020137803F032
:104480006003202B08D170B5264C938894F800C0A7
:104490009C4503D0002070BD002070475378203B1E
:1044A000032BF7D8DFE803F027230D0201292ED0D4
:1044B00003291ED11C4BE3B100205188AFF30080CB
:1044C00017E0012923D0032913D15588174805F097
:1044D000010686F00101257100F0AEFB144B43B1DB
:1044E00031460020C5F34002AFF3008001E001290E
:1044F00011D0012070BD01290DD00329F9D10D4B38
:10450000002BF6D000200C49AFF30080F1E71146F4
:10451000FFF7C6FCEDE711460723074AFFF7DAFC71
:10452000E7E700BF9818002000000000BC1800203A
:104530000000000000000000A01800202DE9F84352
:10454000354E0C46F27807468A421D463DD0B37878
:104550008B4212D04FF0E023D3F8F03DDB0732D48A
:104560000020BDE8F8832D4B23B12D4800F076F9EB
:1045700000284DD00020FFF7A3FDB378A34201D05F
:104580000120EEE7274B13B10020AFF3008000209D
:10459000FFF732FE0028F3D1234800F04FF900283E
:1045A000EED1002DECD015F03F05E9D13846B178B9
:1045B000FFF71AFC0028E3D02B462A463846B1788C
:1045C000FFF736FCDCE700BECAE79AB2174906F1EE
:1045D000100000F067FA164B002BC4D07379FF2B44
:1045E000C1D0002DBFD0DFF8448008EB050902E000
:1045F000C845B8D0737918F8012B9A42F8D1084809
:1046000000F02CF90028F3D17179AFF30080EFE7C7
:10461000AFF30080AEE700BF981800200000000054
:10462000A818002000000000BC180020141800206A
:104630000000000010B582B0C9B101280CD80B7879
:1046400053B1144C012B235402D0012002B010BDF1
:10465000FEF730FF0028F8D14FF0E023D3F8F03D0B
:10466000DB0702D4002002B010BD00BEFAE701242F
:10467000084601A9ADF80440FEF71CFF38B94FF019
:10468000E023D3F8F03DDA07EDD500BEEBE7014BB0
:104690001C70E8E7541B0020F8B5037813F0010400
:1046A0001AD1037805465A07C3F3800701D520467F
:1046B000F8BD0E464FF0FF31304600F05DFD2B781F
:1046C00013F001040BD12B785B0709D42B7801245C
:1046D00043F004032B7003E000242046F8BD3C4661
:1046E000304600F051FD2046F8BD00BF70B50C46C5
:1046F00005464FF0FF31204600F03EFD2B78C3F316
:1047000080065B0708D52B7813F0010311BF002644
:104710002A7863F382022A70204600F035FD304685
:1047200070BD00BFC378828803F003000228C2F383
:104730000A0215D003280AD001281CD1022940F210
:10474000FF3308BF4FF4806393420DD370470229B3
:1047500014BF40234FF48063934205D30120704778
:1047600002290AD0402AF9D94FF0E023D3F8F03DCE
:10477000DB0700D500BE00207047B2F5007FEDD00A
:10478000F2E700BF0A44914226D291F801C0BCF181
:10479000050F05D091F800C061448A42F5D87047F2
:1047A00000B591F802C00CF07F0E00EB4E0E4FEA00
:1047B000DC1C0EF80C3091F800C061448A4209D923
:1047C00091F801C0BCF1050FEBD091F800C0614435
:1047D0008A42F5D85DF804FB704700BF2DE9F0412F
:1047E000B2F5004F9DF8188024D80446C0681746DB
:1047F0000E461D4618B14FF0FF3100F0BDFC206998
:1048000018B14FF0FF3100F0B7FC0022C5F30E03E2
:10481000E06843EAC83362812660A780E380228192
:1048200008B100F0B1FC206908B100F0ADFC012036
:10483000BDE8F0810020BDE8F08100BF0389428916
:104840009BB292B28088934236BFC2EB40029B1A61
:104850009B189BB2984228BF18467047028943892B
:1048600090B29BB2C01AB0FA80F04009704700BF06
:10487000038942899BB2808892B2934236BFC2EBD1
:1048800040029B1A9B189BB2984286BFC01A80B206
:104890000020704738B5044600690D4618B14FF046
:1048A000FF3100F069FC2189638989B29BB2A2883B
:1048B000994236BFC3EB4200C81A401880B250B3C9
:1048C000824209D291422CBF891A89188BB29A422E
:1048D000638103D89B1A9BB29A42FBD9E288216874
:1048E000C2F30E0202FB0311284600F04BFB618964
:1048F000012589B24B1C9BB29942A2880ED9002394
:1049000002FA05F15B1A9BB22069638108B100F0DD
:104910003BFC284638BD054663899BB2B3EB420F8A
:104920004FEA4201F0DBEDE72DE9F047064600696A
:104930008846914618B14FF0FF3100F01DFC3389D5
:1049400074899BB2A4B2B588A34236BFC4EB4507B5
:104950001F1BFF18BFB2002F4AD0BD4240D3B9453C
:1049600028BFB946A5421FFA89F703D8641BA4B231
:10497000A542FBD9B6F806A02B1B31689BB2CAF33F
:104980000E029F42924602FB041123D913FB02F34D
:104990001FFA83F94A4640467D1B00F0F3FA62197C
:1049A00012FB0AF2316808EB090092B200F0EAFA51
:1049B0007289B58892B2D3199BB29A421AD96A0009
:1049C0009B1A9BB23069738108B100F0DDFB384659
:1049D000BDE8F087404607FB02F200F0D3FAE7E7B4
:1049E000AB422CBF5B1B5B199CB22F467481B6E7B0
:1049F00073899BB2B3EB450F4FEA4502E2DBDFE779
:104A0000F8B50446C0680E4618B14FF0FF3100F00B
:104A1000B3FB2589238961899BB289B2A2888B4225
:104A200036BFC1EB42015B1A5B189BB29A42ADB232
:104A300008D8E779FF0905D1E06808B100F0A4FBC8
:104A40003846F8BD954228BF2B4618D39B1A9BB217
:104A50009342FBD2E2882068C2F30E0202FB0300FD
:104A6000314600F08FFA6B1C9BB29D42A28812D98E
:104A7000002351005B1A9BB201272381DCE7E28807
:104A80002068C2F30E0205FB0200314600F07AFAFC
:104A90000135A288ABB2B3EB420F4FEA4201EBDB28
:104AA000E8E700BF2DE9F04F174683B0002A75D024
:104AB0000646C068894618B14FF0FF3100F05CFB34
:104AC000F379B6F808807289DB09B5881FFA88F88F
:104AD00092B23CD1904536BFC2EB4502A8EB020230
:104AE000424492B2AA425ED2AA1A92B2BA4228BFF5
:104AF0003A46B6F806B097B27B1B08EB070ACBF331
:104B00000E0B9BB21FFA8AFAA845444603D3641BD6
:104B1000A4B2AC42FBD22D1B3068ADB2BD420BFB40
:104B2000040057D349460BFB07F200F02BFAB2887A
:104B3000D0454FEA420302D8BAEB420F03DBAAEB9F
:104B400003031FFA83FA3D46A6F808A02CE0B6F846
:104B500006B0AF42CBF30E0B2FD2904536BFC2EB5F
:104B60004501A8EB0201414489B2680039447B1B2E
:104B700081429BB20DDB02EB050A1FFA8AFAAAEB0F
:104B800007081FFA88F8424537D9A8EB00001FFA3A
:104B900080F807EB080A1FFA8AFAB5E71546284697
:104BA00003B0BDE8F08F0025F0680028F7D000F0D2
:104BB000EBFA284603B0BDE8F08F002DF4D07F1B40
:104BC00002EB050A0BFB079990462F4600231FFABC
:104BD0008AFA99E715FB0BF5ADB22A4649460193CF
:104BE00000F0D0F9019B3068E21812FB0BF209EBE0
:104BF000050192B200F0C6F999E7404584DCC4E7AC
:104C000010B50446C06818B14FF0FF3100F0B4FA97
:104C1000206918B14FF0FF3100F0AEFA0023E068D0
:104C20006381238108B100F0AFFA206908B100F078
:104C3000ABFA012010BD00BF38B50446C0680D4670
:104C400018B14FF0FF3100F097FA206918B14FF01A
:104C5000FF3100F091FAE379E06865F3C713E3717F
:104C600008B100F091FA206908B100F08DFA012036
:104C700038BD00BF00B545F247308BB0FDF788FF67
:104C800001220346092101A89847DDE903320449BE
:104C900012BA1BBAC1E900230BB05DF804FB00BFD8
:104CA00044230020002301461A46184600F00EBA9D
:104CB000830730B546D08418844604E003F8011B0E
:104CC0009D0704D09C46A4456346F7D130BD013A08
:104CD0000244A2EB0C02032A29D9CCB20F2A04EB1E
:104CE000042404EB04442FD9A2F1100C03F11005A5
:104CF0002CF00F0CAC44C3E90044C3E90244103368
:104D00006345F8D112F00C0F02F00F0E18D02EF000
:104D1000030CAEF104051A469C4442F8044B62456C
:104D2000FBD125F0030404330EF003022344002AD0
:104D3000CCD0C9B21A4403F8011B9342FBD130BD59
:104D40007246F4E70346C6E79646E0E70B4632B9FB
:104D500013F8012B002AFBD1581A01387047013A89
:104D600018D010B401E0013A0AD013F8014B00F852
:104D7000014B002CF7D1581A5DF8044B01387047ED
:104D8000027013F8012B002AFBD1581A5DF8044B6E
:104D9000013870470270DBE738B5074D074C2C1B14
:104DA000A41005D0013C55F8043D9847002CF9D1DA
:104DB000BDE8384000F0D6B904520010045200108B
:104DC000704700BF704700BF80EA010C1CF0030F62
:104DD00037D110F0030C20F0030021F0030150F84C
:104DE000042B08BF51F8043B0ED08CF0030C6FF07D
:104DF0007F434FEACC0C23FA0CFC51F8043B42EA07
:104E00000C0243EA0C0300BFA2F1013C9A4201BF2D
:104E10002CEA020C1CF0803F50F8042B51F8043BA4
:104E2000F2D04FEA02604FEA1222012828BFB0EB0D
:104E3000036F08BF1B0AF4D003F0FF03000EC01A73
:104E4000704710F0030F0AD010F8012B11F8013B46
:104E5000012A28BF9A42F4D0A2EB030070474DF814
:104E6000045D50F8042B01F0030521F0030151F813
:104E7000043B022D26D04DD822F07F45B5EB132FF1
:104E8000A2F1013C2CEA020C0DD11CF0803C08BFC1
:104E900051F8043B0AD185EA0205B5EB036F0CD14A
:104EA00050F8042BE8E74FEA13235BE03CF07F4C1B
:104EB00054D10B784FEA126554E04FEA126503F0C3
:104EC000FF034FE04FEA0245A2F1013C4FEA1545CE
:104ED0002CEA020CB5EB134F18D11CF0803C08BF34
:104EE00051F8043B07D185EA0205B5EB034F09D120
:104EF00050F8042BE6E75FEA0C4C2FD10B884FEA01
:104F000012452FE04FEA03434FEA12454FEA13439D
:104F100028E000BF02F0FF05B5EB136FA2F1013CE2
:104F20002CEA020C0DD11CF0803C08BF51F8043B68
:104F30000AD185EA0205B5EB032F0AD150F8042BFC
:104F4000E8E74FEA13630DE012F0FF0F06D051F8C7
:104F5000043B4FEA122523F07F4303E04FF00000AB
:104F600020BC704705F0FF0203F0FF00012828BFB6
:104F7000904204BF2D0A1B0AF4D0A2EB000020BC13
:104F8000704700BF844641EA000313F0030349D190
:104F9000403A23D30B6803604B6843608B6883609F
:104FA000CB68C3600B6903614B6943618B698361A3
:104FB000CB69C3610B6A03624B6A43628B6A83628B
:104FC000CB6AC3620B6B03634B6B43638B6B836373
:104FD000CB6BC36340304031403ADBD230320BD32D
:104FE0000B6803604B6843608B688360CB68C36069
:104FF00010301031103AF3D20C3205D351F8043B83
:1050000040F8043B043AF9D2043208D0D2071CBF5E
:1050100011F8013B00F8013B01D30B880380604687
:10502000704700BF082A13D38B07B1D010F00303D9
:10503000AED0C3F10403D21ADB071CBF11F8013B49
:1050400000F8013BA4D331F8023B20F8023B9FE774
:10505000043AD9D3013A11F8013B00F8013BF9D2E7
:105060000B7803704B7843708B7883706046704781
:1050700020F0030110F00300C0F1000051F8043BE0
:1050800000F1040C4FEACC0C6FF000021CBF22FAB6
:105090000CF213434FF0010C4CEA0C2C4CEA0C4C74
:1050A000A3EB0C0222EA030212EACC1204BF51F86D
:1050B000043B0430F4D0C2F1000102EA0102B2FA6A
:1050C00082F2C2F11F0200EBD20070472DE9F843D3
:1050D0001C4D064698460F4628689146FFF770FE1D
:1050E000194B1C682CB3286865681F2D24DC4EB949
:1050F0006B1C0235636044F82570FFF763FE0020E7
:10510000BDE8F88304EB85010123022EC1F88890E5
:1051100003FA05F3D4F8882142EA0302C4F888218F
:10512000C1F80881E4D1D4F88C211A43C4F88C2149
:10513000DEE7064C1C60D6E7FFF744FE4FF0FF3079
:10514000DEE700BFCC100020781600207C1600207F
:10515000024B13B10248FFF7A5BD704700000000E5
:10516000994D0010F8B500BF5FF800F0050400206D
:105170005FF800F0CD0C00205FF800F0E5010020A2
:105180005FF800F0450D00205FF800F01D020020E0
:105190005FF800F0590300205FF800F0010D0020D7
:1051A0005FF800F07D0100205FF800F0E1040020CE
:1051B0005FF800F0A50C0020C52C0010392C001061
:1051C0006D2C0010592D0010A52C0010BD2B0010C7
:1051D000ED2C0010A92B0010491F0010F12C00101D
:1051E000F9220010092C0010D92C0010892C001075
:1051F000A1190010C919001051510010754C001070
:04520000E9010010B0
:10520400496D70756C73652D434543006175746F0A
:105214005F656E006175746F5F70777200000000E7
:105224006465665F6C6100006465765F74797065BF
:105234000000000068646D695F766572000000001C
:105244006C615F6D61736B00706879735F61646436
:10525400720000006F73645F6E616D650000000092
:10526400696D70756C73652D6365630050756C733F
:10527400652D456967687420434543204164617026
:1052840074657200303030303031000043444320C4
:1052940044617461000000000A2A2A2A2050414E09
:1052A4004943202A2A2A0A000A0000004E6F20736C
:1052B40070696E6C6F636B732061726520617661D7
:1052C400696C61626C650000486172647761726543
:1052D40020616C61726D20256420616C726561646B
:1052E4007920636C61696D656400000048617264D3
:1052F400206173736572740052656C656173650037
:10530400626F6F74325F773235713038300000006D
:10531400322E322E3000000073656565645F786953
:10532400616F5F7270323335300000004D6172205E
:105334002032203230323600556E68616E646C65FE
:10534400642049525120307825780A006570202560
:105354003032582077617320616C72656164792002
:10536400617661696C61626C6500000043616E275F
:105374007420636F6E74696E75652078666572203B
:105384006F6E20696E61637469766520657020258F
:10539400303258004C4544006452001070520010E2
:1053A40088520010905200100403090409024B00B3
:1053B400020100A019080B00020202000009040007
:1053C400000102020004052400200105240100015B
:1053D40004240206052406000107058103080010C1
:1053E40009040100020A000000070502024000004F
:1053F400070582024000000012010002EF02014092
:105404008A2E001000010102030100000600525020
:10541400D3F07542FC52001006005250E182887F9E
:105424000453001006005250ABB3605314530010E1
:1054340006005250BBFF3CB61C53001006005250ED
:10544400861C030264520010060052505422A29D8E
:105454003053001005005250DE65F4689864001063
:105464000D0A000000000000C94200104143001072
:1054740071430010BD4300107D4400103D450010F1
:105484000000000009005250000000029853001070
:0854940034F9FF7F0100000064
:10549C00105400101C5400102854001034540010E8
:1054AC00405400104C5400105854001088540010F4
:1054BC004FF050412DE9F0410027044616461D4699
:1054CC00D1F8008008E0C1E88F7F8CF3108830465B
:1054DC00294600F065FFE8B92168EFF3108C72B62D
:1054EC00D1E8CF2F0123002AFAD1C1E8423F002A8C
:1054FC00F6D1BFF35F8F94F904302168002BE2DA08
:10550C00002384F80480C1E88F3F8CF310880120BD
:10551C00BDE8F0810020BDE8F08100BF30B5046823
:10552C00EFF3108C72B6D4E8CFEF0125BEF1000F6B
:10553C00F9D1C4E84E5FBEF1000FF4D1BFF35F8F19
:10554C0090F904400568002C10DB0021C5E88F1F82
:10555C008CF310884FF0504595F90050A54201D1BD
:10556C00084630BDBDE83040FFF7A2BF4FF05042B7
:10557C00126800230271C5E88F3F8CF3108801205C
:10558C0030BD00BF70B505460C4600F015FF024655
:10559C000B464FF47A704FF0FF3E6FF0004CE4FB7B
:1055AC00002396457CEB030138BF72462846BDE8C4
:1055BC00704038BF6346FFF77BBF00BF0368EFF353
:1055CC00108272B6D3E8CFCF0121BCF1000FF9D114
:1055DC00C3E84C1FBCF1000FF4D1BFF35F8F4FF049
:1055EC00FF0C0023016880F804C0C1E88F3F82F3F0
:1055FC00108840BF704700BF10B40A4C23786BB9B9
:10560C00094BC3F1804103F5807001F56021CA5844
:10561C0043F8042F8342FAD1012323705DF8044B25
:10562C00704700BFDF2500209C1C0020004B184752
:10563C00A11C0020034B1A6A02609A6A42605B6AE2
:10564C008360704700000D4008B500234021DB8AC1
:10565C0044F246409847006808BD00BF10B50446A8
:10566C0000F006F9084B20465A68E2609A682261FD
:10567C00DA6862611A69A2615A69E2619B69236204
:10568C00BDE81040FFF7D6BF0000044010B504463B
:10569C00FFF7DAFF1CB10088C0F3033010BD0A20FD
:1056AC0010BD00BF10B504460120FFF7EFFF38B95D
:1056BC002268074B1A6262689A62A2685A6210BD2D
:1056CC004FF480514AF20202014BD9621A6310BDA9
:1056DC0000000D40C168074A516001699160416941
:1056EC00D16081691161C1695161036A9361FFF7EE
:1056FC00D9BF00BF000004402DE9F0434318B3F5B7
:10570C00800F04460D468BB049D80023DB8A00225B
:10571C0042E800F2560254BF1021042144F24960C1
:10572C00984700238146DB8A002242E800F25002AF
:10573C0054BF1021042145F64500984700238046AC
:10574C00DB8A002242E800F2510254BF10210421EE
:10575C0044F25250984700230746DB8A002242E865
:10576C0000F2520254BF1021042144F246309847F3
:10577C000646FFF741FF01A8FFF770FFC847C04777
:10578C00D8234FF4803229462046B847B047FFF75C
:10579C004DFF01A8FFF79EFF0BB0BDE8F08300F0B2
:1057AC0003FEB2E72DE9F0478318B3F5800F0446EA
:1057BC00154688468AB047D80023DB8A002242E887
:1057CC0000F2560254BF1021042144F2496098475C
:1057DC0000238246DB8A002242E800F2500254BFCA
:1057EC001021042145F64500984700238146DB8AA9
:1057FC00002242E800F2510254BF1021042145F26C
:10580C005200984700230746DB8A002242E800F248
:10581C00520254BF1021042144F2463098470646E8
:10582C00FFF7EAFE01A8FFF719FFD047C8472A4641
:10583C0041462046B847B047FFF7F8FE01A8FFF7EE
:10584C0049FF0AB0BDE8F08700F0AEFDB4E700BF39
:10585C000144884206D2002302F1C052135408308E
:10586C008142FBD8BFF34F8FBFF36F8F704700BFE0
:10587C0001224FF480410148FFF7EABF00C0FF034B
:10588C00002108B5134B4FF4707299601248D9601F
:10589C00196159619961D961196259629962D96228
:1058AC00196359639963D963196459649964D96408
:1058BC00196559659965D965196659669966D966E8
:1058CC00196759679967D96700F07EFD034B044A45
:1058DC001A6008BD00001050381E00200022002065
:1058EC00800110502DE9F04F1F4B85B0D3F858A014
:1058FC00BAF1000F22D0002401254FF4E069DFF843
:10590C0070801A4F01E0202C18D00AEA0502611CA5
:10591C002346AB46CCB26D00002AF4D004F0010251
:10592C0003F0FE06164407EB46163046C8F858B08E
:10593C0000F00AFC28B93AEA0B0AE4D105B0BDE83C
:10594C00F08F00238DF80930B37801A88DF808305A
:10595C00F38A0121ADF80490039300F013FC304658
:10596C0000F098FBE7E700BF00001150F81D002085
:10597C0000301150F0B5BB4B85B0D3F8985015F4EE
:10598C00003674D0B84BB94C996A94F83B30B84A8D
:10599C00022B116000F0D480002694F87B30022B8F
:1059AC0000F03B8194F8BB30022B00F07D8194F821
:1059BC00FB30022B00F06C8194F83B31022B00F091
:1059CC00448194F87B31022B00F0338194F8BB3185
:1059DC00022B00F0B68194F8FB31022B00F0A6816B
:1059EC0094F83B32022B00F0968194F87B32022B18
:1059FC0000F0868194F8BB32022B00F0768194F88B
:105A0C00FB32022B00F0668194F83B33022B00F042
:105A1C00568194F87B33022B00F0A48094F8BB33AE
:105A2C00022B00F0998194F8FB33022B00F0B48028
:105A3C003EB9904B1B7823B94FF400328E4BC3F810
:105A4C0090204FF44072874B01219B6C01A8C3F34B
:105A5C000A03ADF80420029300F094FBEA064FF41D
:105A6C000036864C07D5FFF73DFF264603E0EA06D5
:105A7C004FF01004F7D4EB0322D57C4C46F480365F
:105A8C00A37E002B40F09980012394F83A20E37018
:105A9C00002A40F0AD8001234FF4C061784A84F8AD
:105AAC002330ADF8041092E8030004AA02E90300C5
:105ABC00194601A800F066FB4FF400326E4B1A65D4
:105ACC00E90408D46A041DD42B042AD4AE4240F055
